:100000000C9446000C9460010C945B020C94630306
:100010000C9465000C9456040C9465000C946500D7
:100020000C9465000C9465000C9465000C946500BC
:100030000C9465000C9465000C9465000C946500AC
:100040000C94C7000C9465000C9465000C9465003A
:100050000C9465000C9467000C9465000C9465008A
:100060000C9465000C9465000C9465000C9465007C
:100070000C9465000C9465000C9465000C9465006C
:100080000C9465000C9465000C94650011241FBE4F
:10009000CFEFD0E1DEBFCDBF12E0A0E0B1E0E2E7FC
:1000A000FAE300E00BBF02C007900D92AC3FB1072E
:1000B000D9F713E0ACEFB2E001C01D92A633B1074F
:1000C000E1F70E94F7080C94371D0C9400001F9272
:1000D0000F920FB60F9200905B000F9211242F9396
:1000E0003F934F935F936F937F938F939F93AF93C0
:1000F000BF93EF93FF93DF93CF93CDB7DEB784E247
:1001000090E0FC01808191819093350380933403CA
:100110008091340390913503CC01A0E0B0E0BC01A4
:10012000CD010E943D17DC01CB01BC01CD0120E0D7
:1001300030E040E854E40E94AD15DC01CB01BC0185
:10014000CD0120E030E048EC52E40E94B314DC0121
:10015000CB018093300390933103A0933203B0938B
:100160003303CF91DF91FF91EF91BF91AF919F91B9
:100170008F917F916F915F914F913F912F910F9050
:1001800000925B000F900FBE0F901F9018951F926A
:100190000F920FB60F9200905B000F9211242F93D5
:1001A0003F934F935F936F937F938F939F93AF93FF
:1001B000BF93EF93FF93DF93CF93CDB7DEB782E585
:1001C00090E0FC011082809100019091010181304A
:1001D000910549F480910203909103030196909355
:1001E00003038093020380911203909113038130E3
:1001F000910549F48091060390910703019690932D
:1002000007038093060380910403909105030196F0
:100210009093050380930403809106039091070354
:100220008430910569F480910C0390910D0301963F
:1002300090930D0380930C03109207031092060312
:1002400080910403909105038230910569F486E260
:1002500090E026E230E0F90120812064FC01208357
:1002600010920503109204038091020390910303FE
:100270008430910569F48091000390910103019607
:1002800090930103809300031092030310920203E2
:100290000E943905CF91DF91FF91EF91BF91AF910E
:1002A0009F918F917F916F915F914F913F912F918E
:1002B0000F9000925B000F900FBE0F901F9018954B
:1002C0001F920F920FB60F9200905B000F921124B5
:1002D0000F931F932F933F934F935F936F937F934E
:1002E0008F939F93AF93BF93EF93FF93DF93CF933E
:1002F000CDB7DEB72E97DEBFCDBF80E090E0A8E49B
:10030000B2E489839A83AB83BC8369817A818B81D0
:100310009C8120E030E04AE755E40E94B314DC0100
:10032000CB018D839E83AF83B88711E06D817E8181
:100330008F81988520E030E040E85FE30E94BB16A3
:1003400088230CF010E0112329F081E090E09A87D7
:10035000898746C011E06D817E818F81988520E07C
:100360003FEF4FE757E40E945B1618160CF010E0C1
:10037000112361F169817A818B819C8120E030E0D9
:1003800040E251E40E94B314DC01CB01BC01CD0179
:100390000E94DF12DC01CB019A87898712C080E9B5
:1003A00091E09C878B878B859C858C01C801019788
:1003B000F1F78C011C870B8789859A8501979A87AD
:1003C000898789859A85009751F717C06D817E814D
:1003D0008F8198850E94DF12DC01CB019A87898783
:1003E00089859A859E878D878D859E858C01F801EC
:1003F0003197F1F78F011E870D8780910E03909141
:100400000F0384309105F9F08530910534F400979D
:1004100059F08130910559F02BC08530910501F1DB
:100420008630910501F124C00E94890E21C080917F
:10043000FC029091FD0201969093FD028093FC02D4
:100440000E94390515C0209112033091130381E0F9
:1004500090E082279327909313038093120308C0A0
:100460000E94AF0F05C010920F0310920E03000000
:1004700088E590E028E530E0F9012081FC01208347
:100480002E96DEBFCDBFCF91DF91FF91EF91BF914F
:10049000AF919F918F917F916F915F914F913F911C
:1004A0002F911F910F910F9000925B000F900FBE44
:1004B0000F901F9018951F920F920FB60F920090F9
:1004C0005B000F9211240F931F932F933F934F9331
:1004D0005F936F937F938F939F93AF93BF93EF93AC
:1004E000FF93DF93CF93CDB7DEB72E97DEBFCDBF9F
:1004F00080E090E0A8E4B2E489839A83AB83BC8374
:1005000069817A818B819C8120E030E04AE755E463
:100510000E94B314DC01CB018D839E83AF83B88727
:1005200011E06D817E818F81988520E030E040E888
:100530005FE30E94BB1688230CF010E0112329F022
:1005400081E090E09A87898746C011E06D817E81C5
:100550008F81988520E03FEF4FE757E40E945B16BC
:1005600018160CF010E0112361F169817A818B81FA
:100570009C8120E030E040E251E40E94B314DC01B1
:10058000CB01BC01CD010E94DF12DC01CB019A87B7
:10059000898712C080E991E09C878B878B859C8539
:1005A0008C01C8010197F1F78C011C870B878985A5
:1005B0009A8501979A87898789859A85009751F747
:1005C00017C06D817E818F8198850E94DF12DC01CA
:1005D000CB019A87898789859A859E878D878D85A6
:1005E0009E858C01F8013197F1F78F011E870D87E9
:1005F00080910E0390910F0384309105F9F08530BE
:10060000910534F4009759F08130910559F038C0C4
:100610008530910551F18630910551F131C00E942C
:10062000770E2EC08091FE029091FF02019690936A
:10063000FF028093FE020E94390522C080911203BE
:10064000909113030097D9F41092130310921203A0
:1006500010920D0310920C0310920B0310920A03D8
:1006600010920903109208030BC00E94940F08C057
:1006700083E090E090930F0380930E0301C000008D
:1006800088E590E028E530E0F9012081FC01208335
:100690002E96DEBFCDBFCF91DF91FF91EF91BF913D
:1006A000AF919F918F917F916F915F914F913F910A
:1006B0002F911F910F910F9000925B000F900FBE32
:1006C0000F901F9018951F920F920FB60F920090E7
:1006D0005B000F9211240F931F932F933F934F931F
:1006E0005F936F937F938F939F93AF93BF93EF939A
:1006F000FF93DF93CF93CDB7DEB72E97DEBFCDBF8D
:1007000080E090E0A8E4B2E489839A83AB83BC8361
:1007100069817A818B819C8120E030E04AE755E451
:100720000E94B314DC01CB018D839E83AF83B88715
:1007300011E06D817E818F81988520E030E040E876
:100740005FE30E94BB1688230CF010E0112329F010
:1007500081E090E09A87898746C011E06D817E81B3
:100760008F81988520E03FEF4FE757E40E945B16AA
:1007700018160CF010E0112361F169817A818B81E8
:100780009C8120E030E040E251E40E94B314DC019F
:10079000CB01BC01CD010E94DF12DC01CB019A87A5
:1007A000898712C080E991E09C878B878B859C8527
:1007B0008C01C8010197F1F78C011C870B87898593
:1007C0009A8501979A87898789859A85009751F735
:1007D00017C06D817E818F8198850E94DF12DC01B8
:1007E000CB019A87898789859A859E878D878D8594
:1007F0009E858C01F8013197F1F78F011E870D87D7
:1008000080910E0390910F038630910531F483E0BF
:1008100090E090930F0380930E0380910E039091CC
:100820000F038130910569F420910001309101019D
:1008300081E090E08227932790930101809300014B
:1008400012C080910E0390910F03009719F40E943B
:10085000650E09C080910E0390910F0385309105BC
:1008600011F40E94810F88E590E028E530E0F9015D
:100870002081FC0120832E96DEBFCDBFCF91DF917A
:10088000FF91EF91BF91AF919F918F917F916F9168
:100890005F914F913F912F911F910F910F90009277
:1008A0005B000F900FBE0F901F9018951F920F9234
:1008B0000FB60F9200905B000F9211240F931F93BD
:1008C0002F933F934F935F936F937F938F939F9358
:1008D000AF93BF93EF93FF93DF93CF93CDB7DEB783
:1008E0002E97DEBFCDBF80E090E0A8E4B2E489831C
:1008F0009A83AB83BC8369817A818B819C8120E060
:1009000030E04AE755E40E94B314DC01CB018D834B
:100910009E83AF83B88711E06D817E818F8198853A
:1009200020E030E040E85FE30E94BB1688230CF033
:1009300010E0112329F081E090E09A87898746C072
:1009400011E06D817E818F81988520E03FEF4FE738
:1009500057E40E945B1618160CF010E0112361F1A9
:1009600069817A818B819C8120E030E040E251E412
:100970000E94B314DC01CB01BC01CD010E94DF1247
:10098000DC01CB019A87898712C080E991E09C87BE
:100990008B878B859C858C01C8010197F1F78C01B1
:1009A0001C870B8789859A8501979A87898789850E
:1009B0009A85009751F717C06D817E818F81988548
:1009C0000E94DF12DC01CB019A87898789859A858D
:1009D0009E878D878D859E858C01F8013197F1F773
:1009E0008F011E870D8780910E0390910F03019652
:1009F00090930F0380930E0380910E0390910F0349
:100A00008630910531F483E090E090930F0380935A
:100A10000E0380910E0390910F038630910534F000
:100A200010920F0310920E030E94EB0F88E590E0E6
:100A300028E530E0F9012081FC0120832E96DEBFFD
:100A4000CDBFCF91DF91FF91EF91BF91AF919F917A
:100A50008F917F916F915F914F913F912F911F9156
:100A60000F910F9000925B000F900FBE0F901F90A0
:100A70001895DF93CF9300D0CDB7DEB782E090E03A
:100A80009A8389834AC089819A811816190654F578
:100A900089819A81880F991F84509D4FFC01808124
:100AA00091818C339105F4F089819A81880F991F87
:100AB00084509D4FFC011182108289819A81019797
:100AC0009C01220F331F24503D4FF90120813181B9
:100AD0002F5F3F4F880F991F84509D4FFC0131833A
:100AE000208316C089819A81009791F489819A8127
:100AF000880F991F84509D4FFC018081918188311E
:100B0000910534F01092FD021092FC020E94650ED5
:100B100089819A8101979A83898389819A8199230E
:100B20000CF0B1CF82E090E09A83898333C0898151
:100B30009A81880F991F885F9C4FFC018081918169
:100B40008C33910514F189819A81880F991F885FF0
:100B50009C4FFC011182108289819A811816190616
:100B6000A4F489819A8101979C01220F331F285F89
:100B70003C4FF901208131812F5F3F4F880F991F32
:100B8000885F9C4FFC013183208389819A81019782
:100B90009A83898389819A8199234CF60F900F90CB
:100BA000CF91DF910895DF93CF93CDB7DEB780E586
:100BB00090E020E530E0F90120812860FC012083ED
:100BC00083E590E021E0FC01208383E590E023E5CC
:100BD00030E0F90120812260FC01208382E590E071
:100BE000FC01108287E590E021E0FC012083CF9199
:100BF000DF910895DF93CF93CDB7DEB764970FB63B
:100C0000F894DEBF0FBECDBF2091100330911103C9
:100C100080910E0390910F032817390759F081E056
:100C20000E94230B80910E0390910F039093110368
:100C30008093100380910E0390910F0383309105F0
:100C400009F45BC08430910554F48130910591F131
:100C5000823091050CF042C0009771F0AFC0853032
:100C6000910509F476C0853091050CF45CC086309E
:100C7000910509F487C0A2C028E031E0CE010196B9
:100C8000B90149E050E00E943A1A80E060E00E9419
:100C9000F40BCE0101960E94D60BCE0101960E9464
:100CA000FB0E81E060E00E94F40BCE0101960E94F1
:100CB000D60B84C021E131E0CE010196B90149E0B3
:100CC00050E00E943A1A80E060E00E94F40BCE01EE
:100CD00001960E94D60B0E94950770C0CE01019626
:100CE0000E94FB0E80E060E00E94F40BCE010196B2
:100CF0000E94D60B0E94950761C02AE131E0CE0127
:100D00000196B90145E050E00E943A1A80E060E0A7
:100D10000E94F40BCE0101960E94D60B0E946C0833
:100D20000E9495074BC02FE131E0CE010196B90139
:100D300045E050E00E943A1A80E060E00E94F40B27
:100D4000CE0101960E94D60B0E946C080E94E70615
:100D500035C0CE0101960E94351080E060E00E940F
:100D6000F40BCE0101960E94D60BCE0101960E9493
:100D7000521181E060E00E94F40BCE0101960E94C6
:100D8000D60B1CC024E231E0CE010196B9014BE044
:100D900050E00E943A1A80E060E00E94F40BCE011D
:100DA00001960E94D60B02C00E946E1280910E0323
:100DB00090910F0386309105B9F3000064960FB649
:100DC000F894DEBF0FBECDBFCF91DF910895AF92F3
:100DD000BF92CF92DF92EF92FF920F931F93DF9318
:100DE000CF93CDB7DEB765970FB6F894DEBF0FBED1
:100DF000CDBF80910803909109039A8389838091E4
:100E00000A0390910B039C838B8380910C03909138
:100E10000D039E838D8389819A812AE030E0B90198
:100E20000E949F199B01590189819A812AE030E033
:100E3000B9010E949F196C018B819C812AE030E0EE
:100E4000B9010E949F199B0179018B819C812AE045
:100E500030E0B9010E949F198C018D819E812AE0AA
:100E600030E0B9010E949F199B01F9018D819E819B
:100E70002AE030E0B9010E949F199C018DB79EB70E
:100E800040970FB6F8949EBF0FBE8DBF8DB79EB72B
:100E90000196AE01495F5F4FDC014D935C934FE2D9
:100EA00051E0DC0113965C934E931297DC0115968A
:100EB000BC92AE921497DC011796DC92CE921697F4
:100EC000DC011996FC92EE921897DC011B961C939C
:100ED0000E931A97DC011D96FC93EE931C97FC0170
:100EE000378726870E94571A8DB79EB740960FB650
:100EF000F8949EBF0FBE8DBF81E060E00E94F40BAE
:100F0000CE0107960E94D60B65960FB6F894DEBF09
:100F10000FBECDBFCF91DF911F910F91FF90EF904A
:100F2000DF90CF90BF90AF9008958F929F92AF9235
:100F3000BF92CF92DF92EF92FF920F931F93DF93B6
:100F4000CF93CDB7DEB766970FB6F894DEBF0FBE6E
:100F5000CDBF81E489838091FC029091FD029B8347
:100F60008A838A819B818C30910564F080E5898336
:100F70008A819B818D3091052CF08A819B810C9711
:100F80009B838A838091FC029091FD02009721F45B
:100F90008CE090E09B838A838091FE029091FF0217
:100FA0009D838C8380910003909101039F838E83A6
:100FB00081E060E00E94F40B8981882E99248A8167
:100FC0009B812AE030E0B9010E949F199B015901E1
:100FD0008A819B812AE030E0B9010E949F196C014F
:100FE0008C819D812AE030E0B9010E949F199B010C
:100FF00079018C819D812AE030E0B9010E949F191E
:101000008C018E819F812AE030E0B9010E949F19F6
:101010009B01F9018E819F812AE030E0B9010E9495
:101020009F199C018DB79EB742970FB6F8949EBF4B
:101030000FBE8DBF8DB79EB70196AE01485F5F4F63
:10104000DC014D935C9341E451E0DC0113965C9329
:101050004E931297DC0115969C928E921497DC01A8
:101060001796BC92AE921697DC011996DC92CE923E
:101070001897DC011B96FC92EE921A97DC011D96E4
:101080001C930E931C97DC011F96FC93EE931E9706
:10109000FC01318B208B0E94571A8DB79EB7429668
:1010A0000FB6F8949EBF0FBE8DBFCE0108960E946A
:1010B000D60B66960FB6F894DEBF0FBECDBFCF91AC
:1010C000DF911F910F91FF90EF90DF90CF90BF9035
:1010D000AF909F908F900895DF93CF93CDB7DEB7F9
:1010E00061970FB6F894DEBF0FBECDBF809130037D
:1010F00090913103A0913203B0913303BC01CD0133
:1011000020E030E040E251E40E94B314DC01CB0166
:10111000BC01CD0120E030E040EA50E40E94B3146D
:10112000DC01CB01BC01CD0120E030E040E05FE319
:101130000E945514DC01CB01BC01CD010E94EB16CD
:10114000DC01CB019A83898389819A812AE030E08E
:10115000B9010E949F199B01F90189819A812AE0B6
:1011600030E0B9010E949F199C018DB79EB70A9784
:101170000FB6F8949EBF0FBE8DBF8DB79EB7019678
:10118000AE014D5F5F4FDC014D935C9344E551E050
:10119000DC0113965C934E931297DC011596FC9339
:1011A000EE931497FC01378326832FED30E0DC01AA
:1011B00019963C932E9318970E94571AEDB7FEB7D5
:1011C0003A960FB6F894FEBF0FBEEDBF80E06AE01E
:1011D0000E94F40BCE0103960E94D60B61960FB6C7
:1011E000F894DEBF0FBECDBFCF91DF910895EF928F
:1011F000FF920F931F93DF93CF9300D0CDB7DEB74D
:101200001A8219820E946F090E94D3050E94050D5F
:101210000E949F120E94AF1281E390E020EFFC0138
:10122000208381E690E027EFFC01208387E290E0B5
:1012300023E0FC01208386E290E02EECFC01208379
:101240007894E090FC02F090FD020091FE02109173
:10125000FF020E94720F9C01C701B801A9010E9400
:10126000F60F009789F089819A81009769F486E0EA
:1012700090E090930F0380930E0381E090E09A83B7
:1012800089830E94BF1228C0E090FC02F090FD020A
:101290000091FE021091FF020E94720F9C01C70193
:1012A000B801A9010E94F60F0097B1F489819A81D3
:1012B0008130910589F41A82198280910E039091F0
:1012C0000F038630910531F483E090E090930F0393
:1012D00080930E030E94CF120E94FA05B2CF0F93A3
:1012E0001F93DF93CF93CDB7DEB7AA970FB6F894CD
:1012F000DEBF0FBECDBF84E390E02FEFFC01208363
:1013000080E090E0A0E7B1E489839A83AB83BC835B
:1013100069817A818B819C8120E030E04AE755E445
:101320000E94B314DC01CB018D839E83AF83B88709
:1013300011E06D817E818F81988520E030E040E86A
:101340005FE30E94BB1688230CF010E0112329F004
:1013500081E090E09A87898746C011E06D817E81A7
:101360008F81988520E03FEF4FE757E40E945B169E
:1013700018160CF010E0112361F169817A818B81DC
:101380009C8120E030E040E251E40E94B314DC0193
:10139000CB01BC01CD010E94DF12DC01CB019A8799
:1013A000898712C080E991E09C878B878B859C851B
:1013B0008C01C8010197F1F78C011C870B87898587
:1013C0009A8501979A87898789859A85009751F729
:1013D00017C06D817E818F8198850E94DF12DC01AC
:1013E000CB019A87898789859A859E878D878D8588
:1013F0009E858C01F8013197F1F78F011E870D87CB
:1014000088E30E940E0C80E090E0A0EAB0E48F87B1
:10141000988BA98BBA8B6F85788989899A8920E006
:1014200030E04AE755E40E94B314DC01CB018B8B1A
:101430009C8BAD8BBE8B11E06B897C898D899E89DD
:1014400020E030E040E85FE30E94BB1688230CF008
:1014500010E0112329F081E090E0988F8F8B46C037
:1014600011E06B897C898D899E8920E03FEF4FE7F1
:1014700057E40E945B1618160CF010E0112361F17E
:101480006F85788989899A8920E030E040E251E4CB
:101490000E94B314DC01CB01BC01CD010E94DF121C
:1014A000DC01CB01988F8F8B12C080E991E09A8F7D
:1014B000898F898D9A8D8C01C8010197F1F78C0174
:1014C0001A8F098F8F89988D0197988F8F8B8F89AD
:1014D000988D009751F717C06B897C898D899E89FB
:1014E0000E94DF12DC01CB01988F8F8B8F89988D42
:1014F0009C8F8B8F8B8D9C8D8C01F8013197F1F730
:101500008F011C8F0B8F88E30E940E0C80E090E00F
:10151000A0E8BFE38D8F9E8FAF8FB8A36D8D7E8DBA
:101520008F8D98A120E030E04AE755E40E94B31483
:10153000DC01CB0189A39AA3ABA3BCA311E069A1F1
:101540007AA18BA19CA120E030E040E85FE30E94FB
:10155000BB1688230CF010E0112329F081E090E005
:101560009EA38DA346C011E069A17AA18BA19CA185
:1015700020E03FEF4FE757E40E945B1618160CF08F
:1015800010E0112361F16D8D7E8D8F8D98A120E08B
:1015900030E040E251E40E94B314DC01CB01BC0115
:1015A000CD010E94DF12DC01CB019EA38DA312C0EE
:1015B00080E991E098A78FA38FA198A58C01C8011D
:1015C0000197F1F78C0118A70FA38DA19EA1019798
:1015D0009EA38DA38DA19EA1009751F717C069A16D
:1015E0007AA18BA19CA10E94DF12DC01CB019EA3FA
:1015F0008DA38DA19EA19AA789A789A59AA58C01E3
:10160000F8013197F1F78F011AA709A788E30E9423
:101610000E0C88E20E94230B88E00E94230B81E0DD
:101620000E94230B86E00E94230B8CE00E94230B78
:10163000AA960FB6F894DEBF0FBECDBFCF91DF9153
:101640001F910F9108950F931F93DF93CF93CDB701
:10165000DEB72F970FB6F894DEBF0FBECDBF8F87D2
:101660000E946E0C8F850E940E0C8F85813021F0B8
:101670008F85823009F080C080E090E0A0E0B0E487
:1016800089839A83AB83BC8369817A818B819C81B6
:1016900020E030E04AE755E40E94B314DC01CB01BE
:1016A0008D839E83AF83B88711E06D817E818F81AA
:1016B000988520E030E040E85FE30E94BB16882375
:1016C0000CF010E0112329F081E090E09A878987DF
:1016D00046C011E06D817E818F81988520E03FEFCB
:1016E0004FE757E40E945B1618160CF010E0112328
:1016F00061F169817A818B819C8120E030E040E258
:1017000051E40E94B314DC01CB01BC01CD010E9465
:10171000DF12DC01CB019A87898712C080E991E052
:101720009C878B878B859C858C01C8010197F1F77D
:101730008C011C870B8789859A8501979A878987F1
:1017400089859A85009751F717C06D817E818F81B9
:1017500098850E94DF12DC01CB019A8789878985F1
:101760009A859E878D878D859E858C01C8010197FE
:10177000F1F78C011E870D872F960FB6F894DEBF08
:101780000FBECDBFCF91DF911F910F910895DF93D1
:10179000CF930F92CDB7DEB789830E946E0C8981FB
:1017A0000E943E0C0F90CF91DF910895DF93CF936D
:1017B00000D0CDB7DEB79A8389830BC089819A8127
:1017C000FC0180810E94C70B89819A8101969A83CE
:1017D000898389819A81FC018081882379F70F9020
:1017E0000F90CF91DF910895DF93CF9300D0CDB7C5
:1017F000DEB789836A8389818295880F880F807C10
:101800009A81890F8A838A8180688A838A810E946B
:10181000230B0F900F90CF91DF910895DF93CF931B
:1018200000D0CDB7DEB78A838A81807F84608983C8
:1018300085E390E02981FC01208385E390E0298104
:101840002B7FFC0120838A81882F90E082959295DE
:10185000907F9827807F98278460898385E390E034
:101860002981FC01208385E390E029812B7FFC0105
:1018700020830F900F90CF91DF910895DF93CF9346
:1018800000D0CDB7DEB78A838A81807F8560898367
:1018900085E390E02981FC01208385E390E02981A4
:1018A0002B7FFC0120838A81882F90E0829592957E
:1018B000907F9827807F98278560898385E390E0D3
:1018C0002981FC01208385E390E029812B7FFC01A5
:1018D00020830F900F90CF91DF9108950F931F9366
:1018E000DF93CF93CDB7DEB72E970FB6F894DEBF58
:1018F0000FBECDBF80E090E0A0E8BFE389839A836C
:10190000AB83BC8369817A818B819C8120E030E04C
:101910004AE755E40E94B314DC01CB018D839E831A
:10192000AF83B88711E06D817E818F81988520E03B
:1019300030E040E85FE30E94BB1688230CF010E023
:10194000112329F081E090E09A87898746C011E051
:101950006D817E818F81988520E03FEF4FE757E4CE
:101960000E945B1618160CF010E0112361F16981DA
:101970007A818B819C8120E030E040E251E40E943A
:10198000B314DC01CB01BC01CD010E94DF12DC01EC
:10199000CB019A87898712C080E991E09C878B8769
:1019A0008B859C858C01C8010197F1F78C011C8700
:1019B0000B8789859A8501979A87898789859A8572
:1019C000009751F717C06D817E818F8198850E94A5
:1019D000DF12DC01CB019A87898789859A859E87EA
:1019E0008D878D859E858C01C8010197F1F78C014B
:1019F0001E870D872E960FB6F894DEBF0FBECDBFA3
:101A0000CF91DF911F910F910895DF93CF93CDB7C1
:101A1000DEB789E590E029E530E0F9012081216019
:101A2000FC01208389E590E029E530E0F90120817F
:101A30002260FC01208389E590E029E530E0F9018E
:101A400020812460FC01208389E590E029E530E0D5
:101A5000F90120812061FC0120838AE690E02AE6DA
:101A600030E0F90120812260FC0120838AE690E0C9
:101A70002AE630E0F90120812860FC0120838AE613
:101A800090E02AE630E0F90120812062FC01208309
:101A90008AE590E02AE530E0F90120812260FC012E
:101AA0002083CF91DF910895DF93CF93CDB7DEB739
:101AB00080911403909115038130910539F48DE1E3
:101AC00090E0909361018093600106C08CE190E00A
:101AD00090936101809360018091780190917901E8
:101AE0000197880F991F825A9E4FFC0120813181F6
:101AF00080917A0190917B012817390744F481E0A5
:101B000090E090937B0180937A010E94770E809100
:101B10007801909179018D30910544F00E94890EF1
:101B200081E090E090937901809378010E94D70D35
:101B3000CF91DF910895DF93CF9300D0CDB7DEB77B
:101B40009A83898389819A8120E931E0B9010E94D1
:101B50009F19009711F481E014C089819A8124E6CD
:101B600030E0B9010E949F19009711F480E009C08C
:101B700089819A8183709070009711F481E001C08F
:101B800080E00F900F90CF91DF910895DF93CF9376
:101B9000CDB7DEB783EE97E00E949B0D882F90E0D3
:101BA0009093150380931403CF91DF910895DF93F1
:101BB000CF9300D000D000D0CDB7DEB71A82198203
:101BC00083EE97E09C838B8318C08B819C810E945D
:101BD0009B0D882339F089819A8182599E4F9A837F
:101BE000898306C089819A8183599E4F9A8389830C
:101BF0008B819C8101969C838B832091760130910F
:101C000077018B819C8182179307FCF281E090E041
:101C10009E838D8315C08D819E810197880F991FAA
:101C2000825A9E4FFC018081918129813A81820FE5
:101C3000931F9A8389838D819E8101969E838D83D4
:101C400020917801309179018D819E8182179307CF
:101C500014F380917A0190917B0129813A81820F5E
:101C6000931F9A83898389819A810196AA2797FD78
:101C7000A095BA2F8093160390931703A09318038F
:101C8000B09319038091160390911703A091180344
:101C9000B091190327E030E040E050E0BC01CD01F5
:101CA0000E94B219DC01CB018093160390931703B5
:101CB000A0931803B093190326960FB6F894DEBFCD
:101CC0000FBECDBFCF91DF910895DF93CF93CDB7F6
:101CD000DEB780917A0190917B01019690937B0110
:101CE00080937A010E94540DCF91DF910895DF9384
:101CF000CF93CDB7DEB780917801909179010196AD
:101D000090937901809378010E94540DCF91DF91D7
:101D10000895DF93CF93CDB7DEB780917601909190
:101D200077010196909377018093760180917601F7
:101D3000909177010E949B0D882F90E0909315035E
:101D4000809314030E94540DCF91DF910895DF9387
:101D5000CF93CDB7DEB769970FB6F894DEBF0FBE4D
:101D6000CDBF998F888FCE01039620E931E045E100
:101D7000F90100802F5F3F4FFC0100820196415026
:101D80004423B1F71A82198228C089819A81288D4B
:101D9000398DA901480F591F80911603909117039F
:101DA000A0911803B09119039C01C901880F991FD4
:101DB000820F931F9E012F5F3F4F280F391F89818C
:101DC0009A81820F931F0296FC018081FA01808321
:101DD00089819A8101969A83898389819A81833046
:101DE00091059CF269960FB6F894DEBF0FBECDBF89
:101DF000CF91DF910895EF92FF920F931F93DF939E
:101E0000CF93CDB7DEB727970FB6F894DEBF0FBEDE
:101E1000CDBF9D838C830E94540DCE0101960E94FC
:101E2000A70E0091760110917701A0917801B091F1
:101E3000790180917A0190917B019F838E838981C2
:101E4000682F70E08A81482F50E08B81282F30E086
:101E5000EDB7FEB770970FB6F894FEBF0FBEEDBF9B
:101E60008DB79EB70196EC80FD80FC01F182E08287
:101E70000F2EFCE7EF2EF1E0FF2EF02DFC01F38298
:101E8000E282FC0115830483FC01B783A683EE8103
:101E9000FF81DC011996FC93EE931897DC011B96E9
:101EA0007C936E931A97FC0155874487DC011F963B
:101EB0003C932E931E970E94571AEDB7FEB770966B
:101EC0000FB6F894FEBF0FBEEDBF27960FB6F8947D
:101ED000DEBF0FBECDBFCF91DF911F910F91FF905D
:101EE000EF900895DF93CF93CDB7DEB780911603BF
:101EF00090911703A0911803B0911903CF91DF912E
:101F00000895DF93CF93CDB7DEB720911E033091B4
:101F10001F0381E090E08227932790931F03809313
:101F20001E03CF91DF910895DF93CF93CDB7DEB736
:101F300080912E0390912F03019690932F0380930D
:101F40002E0380912E0390912F038930910524F068
:101F500010922F0310922E03CF91DF910895DF93FB
:101F6000CF93CDB7DEB780912E0390912F038730AA
:101F70009105DCF480912E0390912F0320912E0384
:101F800030912F03220F331F205E3C4FF901408117
:101F9000518121E030E024273527880F991F805E8A
:101FA0009C4FFC013183208313C080912E039091BC
:101FB0002F038730910519F40E94381209C08091CF
:101FC0002E0390912F038830910511F40E94531233
:101FD000CF91DF910895DF93CF93CDB7DEB7109205
:101FE0002F0310922E03CF91DF910895DF93CF93AB
:101FF00000D000D000D0CDB7DEB79A8389837C8330
:102000006B835E834D8380911E0390911F0381300B
:10201000910501F58D819E81880F991F805E9C4FEF
:10202000FC01808191810097A9F020911A033091E1
:102030001B0389819A812817390761F420911C03B9
:1020400030911D038B819C812817390719F481E099
:1020500090E002C080E090E026960FB6F894DEBFD4
:102060000FBECDBFCF91DF910895CF92DF92EF9257
:10207000FF920F931F93DF93CF93CDB7DEB72997CE
:102080000FB6F894DEBF0FBECDBF998788878885CD
:102090009985DC011C9281E48B8380912E039091C1
:1020A0002F03873091059CF58885998523EB31E0D6
:1020B000B90147E050E00E943A1A1D821C8212C00A
:1020C00025EA31E08C819D81880F991F280F391FE7
:1020D00088859985B9010E94431A8C819D8101965A
:1020E0009D838C838C819D81873091054CF38885FD
:1020F00099850E944E1A28853985820F931F2AEBF5
:1021000031E0B90144E050E00E943A1ABCC080912D
:102110001A0390911B038C30910514F080E58B839A
:1021200080911A0390911B032CE030E0B9010E94CA
:102130009F199A83898389819A81009721F48CE081
:1021400090E09A83898380911C0390911D039F8363
:102150008E838B81C82EDD2489819A812AE030E02C
:10216000B9010E949F199B01790189819A812AE016
:1021700030E0B9010E949F198C018E819F812AE075
:1021800030E0B9010E949F199B01F9018E819F8166
:102190002AE030E0B9010E949F199C018DB79EB7DB
:1021A0000E970FB6F8949EBF0FBE8DBF8DB79EB72A
:1021B000019648855985DC014D935C934EEB51E0C7
:1021C000DC0113965C934E931297DC011596DC921A
:1021D000CE921497DC011796FC92EE921697DC01D2
:1021E00019961C930E931897DC011B96FC93EE93A3
:1021F0001A97FC01358724870E94571A8DB79EB71E
:102200000E960FB6F8949EBF0FBE8DBF80912E0321
:1022100090912F038730910581F4888599850E94DC
:102220004E1A28853985820F931F21ED31E0B901BF
:1022300043E050E00E943A1A26C080912E0390910C
:102240002F038830910581F4888599850E944E1A64
:1022500028853985820F931F24ED31E0B90143E0D1
:1022600050E00E943A1A0FC0888599850E944E1A44
:1022700028853985820F931F27ED31E0B90143E0AE
:1022800050E00E943A1A29960FB6F894DEBF0FBEAE
:10229000CDBFCF91DF911F910F91FF90EF90DF9015
:1022A000CF900895DF93CF9300D000D000D0CDB76A
:1022B000DEB79E838D838D819E81FC01108280918B
:1022C0002E0390912F03873091050CF07AC08091F6
:1022D0001E0390911F03009751F08D819E812AED7E
:1022E00031E0B90147E050E00E943A1A09C08D81FF
:1022F0009E8121EE31E0B90147E050E00E943A1A98
:102300001A82198248C089819A81880F991F805E3C
:102310009C4FFC0180819181009781F08D819E818D
:102320000E944E1A2D813E81820F931F28EE31E0CC
:10233000B90142E050E00E943A1A28C080912E0371
:1023400090912F0329813A812817390781F48D81D3
:102350009E810E944E1A2D813E81820F931F2AEE8C
:1023600031E0B90142E050E00E943A1A0FC08D817D
:102370009E810E944E1A2D813E81820F931F2CEE6A
:1023800031E0B90142E050E00E943A1A89819A8115
:1023900001969A83898389819A81873091050CF40B
:1023A000B2CF8D819E810E944E1A2D813E81820F77
:1023B000931F2AEB31E0B90144E050E00E943A1A41
:1023C0004EC08D819E812EEE31E0B90146E050E095
:1023D0000E943A1A1C821B822EC08B819C81880F1E
:1023E000991F805E9C4FFC01808191818130910515
:1023F00071F425EA31E08B819C81880F991F280FA9
:10240000391F8D819E81B9010E94431A0FC08D81B1
:102410009E810E944E1A2D813E81820F931F2CEEC9
:1024200031E0B90142E050E00E943A1A8B819C8170
:1024300001969C838B838B819C81873091056CF204
:102440008D819E810E944E1A2D813E81820F931FA5
:102450002AEB31E0B90144E050E00E943A1A269696
:102460000FB6F894DEBF0FBECDBFCF91DF910895B8
:10247000DF93CF93CDB7DEB780911A0390911B0302
:10248000019690931B0380931A0380911A039091F5
:102490001B038831910524F010921B0310921A033C
:1024A000CF91DF910895DF93CF93CDB7DEB78091C1
:1024B0001C0390911D03019690931D0380931C03B0
:1024C00080911C0390911D038C33910524F0109290
:1024D0001D0310921C03CF91DF910895DF93CF93DA
:1024E00000D0CDB7DEB71A8219821EC089819A81C9
:1024F00021E08039920754F488E390E028E330E04B
:10250000F90120812068FC01208309C088E390E064
:1025100028E330E0F90120812F77FC0120838981B5
:102520009A8101969A83898389819A81F3E0803226
:102530009F07E4F20F900F90CF91DF910895DF9302
:10254000CF93CDB7DEB787E390E027E330E0F90122
:1025500020812068FC012083CF91DF910895DF93D3
:10256000CF93CDB7DEB787E390E027E330E0F90102
:1025700020812160FC012083CF91DF910895DF93BA
:10258000CF93CDB7DEB788E390E028E330E0F901E0
:1025900020812160FC012083CF91DF910895DF939A
:1025A000CF93CDB7DEB788E390E028E330E0F901C0
:1025B00020812E7FFC012083CF91DF910895EF923F
:1025C000FF920F931F937B018C0120E030E040E0ED
:1025D0005FE40E948B1687FD11C0C801B70120E09F
:1025E00030E040E05FE40E9482140E94EB169B0101
:1025F000AC01205030404040504806C0C801B701EF
:102600000E94EB169B01AC01B901CA011F910F9109
:10261000FF90EF900895A0E0B0E0E1E1F3E10C94C9
:10262000071AFC01EA018081823008F438C1DB011D
:102630009C91923008F430C1843059F4943009F000
:102640002EC1918111968C911197981709F021C193
:1026500026C1943009F420C19230B1F4823009F0DF
:102660001EC1CA01AF0128E0DA010D90AD01DC0105
:102670000D92CD012150C1F7DB0111968C9111977C
:102680009181892389830AC1823009F405C1C280FE
:10269000D380DB0112966D907C9013972481358155
:1026A000468157811496ED90FD900D911C911797DE
:1026B000C601861997095C0197FF04C0AA24BB24B0
:1026C000A81AB90AB0E2AB16B1040CF061C0181632
:1026D00019066CF5370148010A2C04C096948794BA
:1026E000779467940A94D2F781E090E0A0E0B0E09C
:1026F0000A2C04C0880F991FAA1FBB1F0A94D2F787
:102700000197A109B1098E219F21A023B123EE24B5
:10271000FF248701E3940097A105B10519F4EE2485
:10272000FF248701E628F728082919293CC00097CB
:10273000D1F1CA0CDB1C39014A010A2C04C0969461
:102740008794779467940A94D2F781E090E0A0E0B0
:10275000B0E00A2C04C0880F991FAA1FBB1F0A945F
:10276000D2F70197A109B10982239323A423B523AA
:1027700021E030E040E050E00097A105B10519F4F8
:1027800020E030E0A90126293729482959290BC022
:102790006C147D0424F4EE24FF24870104C063013B
:1027A00020E030E0A9018181FB019181891709F4C2
:1027B00045C0882349F0D801C701821B930BA40BA5
:1027C000B50B9C01AD0104C02E193F09400B510B04
:1027D00057FD04C01982DB82CA820BC081E0898365
:1027E000DB82CA8250954095309521953F4F4F4FDF
:1027F0005F4F2C833D834E835F830DC0880F991FED
:10280000AA1FBB1F8C839D83AE83BF838A819B815C
:1028100001979B838A838C819D81AE81BF819C01BE
:10282000AD0121503040404050402F3FEFEF3E0778
:10283000EFEF4E07EFE35E0708F30BC08983DB82FF
:10284000CA822E0D3F1D401F511F2C833D834E8396
:102850005F8383E088832C813D814E815F8157FFB8
:102860001DC0DA01C90181709070A070B0705695DA
:10287000479537952795822B932BA42BB52B8C83CB
:102880009D83AE83BF838A819B8101969B838A83CC
:1028900005C0E4EFF1E003C0FB0101C0FE01CF0180
:1028A000CDB7DEB7EEE00C94231AA0E2B0E0EBE582
:1028B000F4E10C940F1A69837A838B839C832D83B4
:1028C0003E834F83588789E0E82EF12CEC0EFD1EE5
:1028D000CE010196B7010E94DD188E010F5E1F4FD9
:1028E000CE010596B8010E94DD18C701B801AE01FE
:1028F000475E5F4F0E940B130E940F18A096E6E000
:102900000C942B1AA0E2B0E0E8E8F4E10C940F1A62
:1029100069837A838B839C832D833E834F8358877F
:102920008E01075F1F4FCE010196B8010E94DD188E
:1029300091E1E92EF12CEC0EFD1ECE010596B701BA
:102940000E94DD188A8991E089278A8BC801B70126
:10295000AE01475E5F4F0E940B130E940F18A096B6
:10296000E6E00C942B1AA0E2B0E0E9EBF4E10C9461
:10297000031A69837A838B839C832D833E834F83E1
:102980005887CE010196BE01675F7F4F0E94DD1818
:10299000CE010596BE016F5E7F4F0E94DD189985BE
:1029A000923078F089898230C0F0943019F4823006
:1029B00041F4CBC0843019F4923079F4C6C092301F
:1029C00051F481E02A859A89291709F480E08A87E1
:1029D000CE010996BCC0823051F481E02A859A89E3
:1029E000291709F480E08A8BCE014196B0C06D842E
:1029F0007E848F849888ED88FE880F89188DE0E2A8
:102A0000F0E080E090E0DC01AA24BB24650120E036
:102A100030E0A901B3016170707061157105D1F0EA
:102A20002E0D3F1D401F511F15012601280E391E76
:102A30004A1E5B1E81E090E0A0E0B0E02E153F054D
:102A40004007510718F080E090E0DC01820D931DF3
:102A5000A41DB51DAA0CBB1CCC1CDD1C17FF09C096
:102A600061E0262E312C412C512CA228B328C428F9
:102A7000D528319749F0EE0CFF1C001F111F9694CA
:102A8000879477946794C6CF6B897C89EB85FC85A6
:102A90006E0F7F1F6E5F7F4F7C8F6B8F61E0EA85CB
:102AA0007A89E71709F460E06A8F6B8D7C8D10C01E
:102AB000FC01E170F070309729F0569547953795F5
:102AC00027955068B695A795979587956F5F7F4F27
:102AD000B7FDEECF0CC0880F991FAA1FBB1F57FD73
:102AE0008160220F331F441F551F6150704080309A
:102AF000E0E09E07E0E0AE07E0E4BE0760F36B8F26
:102B00007C8F6FE7E62EF12C012D112DE822F922A2
:102B10000A231B2360E4E616F1040105110561F4A4
:102B200087FD0AC0211531054105510529F0805C5A
:102B30009F4FAF4FBF4F80788D8F9E8FAF8FB8A3C1
:102B400083E0898FCE01499602C084EF91E00E9414
:102B50000F18A096E2E10C941F1AA8E1B0E0E3EB95
:102B6000F5E10C940B1A69837A838B839C832D8304
:102B70003E834F8358878E01075F1F4FCE0101961A
:102B8000B8010E94DD1881E1E82EF12CEC0EFD1E4B
:102B9000CE010596B7010E94DD189985923008F4A0
:102BA00083C08989823008F47BC02A853A8923272B
:102BB0002A87943011F0923021F4981709F06CC0F4
:102BC00071C0843039F41D861E861F86188A1C86C3
:102BD0001B866AC0823019F484E0898765C08B85C2
:102BE0009C852B893C89821B930B9C878B872D8529
:102BF0003E854F855889ED88FE880F89188D2E15E2
:102C00003F054007510738F4220F331F441F551F5B
:102C100001979C878B876FE170E0A12CB12CC12CB0
:102C2000A0E4DA2E80E090E0DC012E153F0540079D
:102C3000510740F08A299B29AC29BD292E193F094B
:102C4000400B510BD694C794B794A794220F331F0F
:102C5000441F551F6150704041F76FE7E62EF12C7D
:102C6000012D112DE822F9220A231B2360E4E61628
:102C7000F1040105110561F487FD0AC02115310534
:102C80004105510529F0805C9F4FAF4FBF4F8078C1
:102C90008D879E87AF87B88B8E01075F1F4F04C05B
:102CA000870102C004EF11E0C8010E940F18689666
:102CB000EAE00C94271AA8E1B0E0E1E6F6E10C9412
:102CC0000F1A69837A838B839C832D833E834F8382
:102CD00058878E01075F1F4FCE010196B8010E94F1
:102CE000DD1881E1E82EF12CEC0EFD1ECE010596DB
:102CF000B7010E94DD188985823040F089898230D1
:102D000028F0C801B7010E94461901C08FEF6896EC
:102D1000E6E00C942B1AA8E1B0E0E1E9F6E10C94AE
:102D20000F1A69837A838B839C832D833E834F8321
:102D300058878E01075F1F4FCE010196B8010E9490
:102D4000DD1881E1E82EF12CEC0EFD1ECE0105967A
:102D5000B7010E94DD188985823040F08989823070
:102D600028F0C801B7010E94461901C08FEF68968C
:102D7000E6E00C942B1AA8E1B0E0E1ECF6E10C944B
:102D80000F1A69837A838B839C832D833E834F83C1
:102D900058878E01075F1F4FCE010196B8010E9430
:102DA000DD1881E1E82EF12CEC0EFD1ECE0105961A
:102DB000B7010E94DD188985823040F08989823010
:102DC00028F0C801B7010E94461901C081E0689649
:102DD000E6E00C942B1AACE0B0E0E1EFF6E10C94E5
:102DE000131A69837A838B839C83CE010196BE017B
:102DF0006B5F7F4F0E94DD188D81823081F18230C0
:102E000070F1843021F48E81882369F10AC02F810A
:102E1000388537FD24C06E812F3131053CF06623A3
:102E200011F120E030E040E050E821C08EE190E078
:102E3000821B930B29853A854B855C8504C056958A
:102E40004795379527958A95D2F7662381F0509557
:102E50004095309521953F4F4F4F5F4F08C020E080
:102E600030E0A90104C02FEF3FEF4FEF5FE7B9015A
:102E7000CA012C96E2E00C942F1AA8E0B0E0E3E43B
:102E8000F7E10C940D1A7B018C011A826115710512
:102E90008105910519F482E089835FC083E089830D
:102EA0008EE1C82ED12CDC82CB82ED82FE820F8394
:102EB0001887C801B7010E94B517FC013197F7FFC9
:102EC0003AC0AA27BB27AE1BBF0B21E030E040E091
:102ED00050E00A2E04C0220F331F441F551F0A94CE
:102EE000D2F721503040404050402E213F21402316
:102EF000512361E070E080E090E02115310541054B
:102F0000510519F460E070E0CB0104C016950795F7
:102F1000F794E794AA95D2F7E62AF72A082B192BFB
:102F2000ED82FE820F8318878EE190E08E1B9F0B4F
:102F30009C838B8312C0309781F00E2E04C0EE0C60
:102F4000FF1C001F111F0A94D2F7ED82FE820F832F
:102F50001887CE1ADF0ADC82CB82CE0101960E944E
:102F60000F182896E8E00C94291AAF92BF92CF92DE
:102F7000DF92EF92FF920F931F937B018C0180E011
:102F8000E81680E0F80681E0080780E0180758F4AA
:102F9000EFEFEE16F1040105110509F090F480E061
:102FA00090E0DC0117C0F0E0EF16F0E0FF06F0E083
:102FB0000F07F1E01F0750F480E190E0A0E0B0E0DF
:102FC00009C088E090E0A0E0B0E004C088E190E0B3
:102FD000A0E0B0E020E230E040E050E0281B390BF8
:102FE0004A0B5B0B5701680104C0D694C794B79491
:102FF000A7948A95D2F7D601C50184509E4FFC0153
:103000008081281B310941095109C9011F910F9184
:10301000FF90EF90DF90CF90BF90AF900895EF9228
:10302000FF920F931F93CF93DF93FC01248135818F
:103030004681578161818081823020F44061EFEFC9
:10304000F0E0A3C0843009F49BC0823009F492C040
:10305000211531054105510509F48FC00280F38126
:10306000E02D8FEFE238F8070CF05AC0C2E8DFEF2E
:10307000CE1BDF0BCA31D1056CF579018A010C2E0C
:1030800004C016950795F794E7940A94D2F781E067
:1030900090E0A0E0B0E00C2E04C0880F991FAA1F9A
:1030A000BB1F0A94D2F70197A109B1098223932388
:1030B000A423B52321E030E040E050E00097A105D3
:1030C000B10519F420E030E0A9012E293F29402B59
:1030D000512B03C020E030E0A901DA01C9018F774C
:1030E0009070A070B07080349105A105B10539F4DD
:1030F00027FF09C0205C3F4F4F4F5F4F04C0215C4A
:103100003F4F4F4F5F4FE1E0F0E0203080E0380765
:1031100080E0480780E4580728F5E0E0F0E022C0AE
:10312000E038F1056CF5E158FF4FDA01C9018F77FE
:103130009070A070B07080349105A105B10539F48C
:1031400027FF09C0205C3F4F4F4F5F4F04C0215CF9
:103150003F4F4F4F5F4F57FF05C0569547953795E7
:103160002795319687E056954795379527958A9507
:10317000D1F70BC0E0E0F0E005C0E0E0F0E005C012
:10318000EFEFF0E020E030E0A9018E2F879588274F
:103190008795942F9F77679566276795E695E22E2A
:1031A000A92FA82BFE2FF62B622F732F8A2F9F2F6C
:1031B000CDB7DEB7E6E00C942B1ADC01FB012C91B5
:1031C00011963C91119712968C911297482F4F7738
:1031D00050E0982F991F9927991F13966C91139778
:1031E000862F880F892B90E0661F6627661F6183F4
:1031F000009739F5211531054105510511F482E09B
:1032000029C082E89FEF9383828367E0220F331FF8
:10321000441F551F6A95D1F783E0808309C0220FB0
:10322000331F441F551F82819381019793838283AB
:10323000203080E0380780E0480780E4580778F3C2
:1032400020C08F3F910579F42115310541055105C5
:1032500019F484E08083089544FF03C081E08083F3
:1032600010C010820EC08F5790409383828383E0FA
:10327000808387E0220F331F441F551F8A95D1F7A3
:10328000506424833583468357830895FC01DB0112
:103290009081923008F449C08C91823008F445C086
:1032A000943051F461818430B1F511962C911197CD
:1032B00030E0261B310941C0843021F0923041F4C6
:1032C0008230B1F111968C9111978823A1F12DC014
:1032D0006181823001F111968C9111976817D9F4B0
:1032E0002281338112968D919C91139782179307B7
:1032F00094F028173907BCF0248135814681578125
:1033000014968D919D910D90BC91A02D82179307DD
:10331000A407B50718F4662341F00DC02817390734
:103320004A075B0728F4662331F021E030E005C04E
:1033300020E030E002C02FEF3FEFC901089597FB76
:10334000092E07260AD077FD04D027D006D000200A
:103350001AF4709561957F4F0895F6F790958195D1
:103360009F4F089597FB092E05260ED057FD04D0D8
:1033700028D00AD0001C38F45095409530952195FE
:103380003F4F4F4F5F4F0895F6F79095809570959A
:1033900061957F4F8F4F9F4F0895AA1BBB1B51E133
:1033A00007C0AA1FBB1FA617B70710F0A61BB70BB5
:1033B000881F991F5A95A9F780959095BC01CD015A
:1033C0000895A1E21A2EAA1BBB1BFD010DC0AA1F66
:1033D000BB1FEE1FFF1FA217B307E407F50720F07E
:1033E000A21BB30BE40BF50B661F771F881F991FF9
:1033F0001A9469F760957095809590959B01AC0142
:10340000BD01CF0108952F923F924F925F926F922C
:103410007F928F929F92AF92BF92CF92DF92EF9264
:10342000FF920F931F93CF93DF93CDB7DEB7CA1BE5
:10343000DB0B0FB6F894DEBF0FBECDBF09942A8810
:10344000398848885F846E847D848C849B84AA84B8
:10345000B984C884DF80EE80FD800C811B81AA8145
:10346000B981CE0FD11D0FB6F894DEBF0FBECDBF10
:10347000ED010895FB01DC0102C001900D92415065
:103480005040D8F70895FB01DC010D900020E9F7CA
:10349000119701900D920020E1F70895FC01019031
:1034A0000020E9F7809590958E0F9F1F08950F9348
:1034B0001F93DF93CF93CDB7DEB72E970FB6F89457
:1034C000DEBF0FBECDBF0D891E8986E08C831A83B7
:1034D00009838FEF9FE79E838D839E01275E3F4F79
:1034E000CE0101966F89788DA9010E94871AEF811C
:1034F000F885E00FF11F10822E960FB6F894DEBF0C
:103500000FBECDBFCF91DF911F910F9108952F92E4
:103510003F924F925F926F927F928F929F92AF9263
:10352000BF92CF92DF92EF92FF920F931F93DF93A0
:10353000CF93CDB7DEB72C970FB6F894DEBF0FBE92
:10354000CDBF6C011B018A01FC01178216828381A9
:1035500081FFD1C12E010894411C511CF6019381B9
:10356000F10193FD859193FF81911F01882309F457
:10357000BEC1853239F493FD859193FF81911F017E
:10358000853229F490E0B6010E94AD1CE7CFEE240D
:10359000FF2420E02032B0F48B3269F08C3228F422
:1035A000803251F0833271F40BC08D3239F08033A8
:1035B00049F421602CC02260246029C0286027C003
:1035C000206125C027FD2CC0382F30533A3098F4A5
:1035D00026FF08C08E2D880FE82EEE0CEE0CE80EAC
:1035E000E30E15C08F2D880FF82EFF0CFF0CF80E80
:1035F000F30E20620CC08E3221F426FD78C12064C7
:1036000006C08C3611F4206802C0883649F4F101F6
:1036100093FD859193FF81911F01882309F0BACF13
:10362000982F9554933018F09052933028F40C5FF3
:103630001F4FFFE3F9830DC0833631F0833771F0FC
:10364000833509F060C022C0F801808189830E5F54
:103650001F4F420171E0A72EB12C16C062E0662E0A
:10366000712C600E711EF8018080918026FF03C0CE
:103670006E2D70E002C06FEF7FEFC4012C870E94B7
:10368000A21C5C0183012C852F7717C052E0652EA8
:10369000712C600E711EF8018080918026FF03C09E
:1036A0006E2D70E002C06FEF7FEFC4012C870E9487
:1036B000971C5C012C852068830123FD20C008C075
:1036C00080E290E0B6012C870E94AD1CFA942C8514
:1036D0008F2D90E0A816B90698F311C0F40127FDCC
:1036E000859127FF81914F0190E0B6012C870E94C0
:1036F000AD1C2C85F110FA940894A108B108A1140E
:10370000B10461F7F1C0843611F0893649F527FF1D
:1037100008C0F80160817181828193810C5F1F4F25
:1037200009C0F80160817181882777FD8095982F05
:103730000E5F1F4F4FE6B42EB22297FF09C090953F
:103740008095709561957F4F8F4F9F4FF0E8BF2A0E
:10375000A2012AE030E00E94D91C782E741845C0DE
:10376000853731F43FEEB32EB2222AE030E025C097
:1037700099EFB92EB2228F36C1F0803720F4883508
:1037800009F0B5C00DC0803721F0883709F0AFC00F
:1037900002C020E1B22AB4FE0BC084E0B82A08C0FF
:1037A000B4FE09C0E6E0BE2A06C028E030E005C04D
:1037B00020E130E002C020E132E0B7FE08C0F801AD
:1037C00060817181828193810C5F1F4F07C0F80176
:1037D0006081718180E090E00E5F1F4FA2010E9426
:1037E000D91C782E7418FFE7BF22B6FE0BC02EEF4F
:1037F000B2227E1438F4B4FE07C0B2FC05C08FEECE
:10380000B82202C0A72C01C0AE2C8B2D90E0B4FED4
:103810000DC0FE01E70DF11D2081203319F4E9EE02
:10382000BE2209C0A394B2FE06C004C08678907080
:10383000009709F0A3948B2C9924B3FC14C0B0FE1C
:103840000FC0AF1428F4E72CEF0CEA18AF2C08C017
:10385000E72C06C080E290E0B6010E94AD1CA39464
:10386000AF14C0F304C0AF1410F4FA1801C0FF2461
:1038700084FE0FC080E390E0B6010E94AD1C82FE82
:103880001FC081FE03C088E590E010C088E790E08B
:103890000DC0C40186789070009791F081FC02C041
:1038A00080E201C08BE2B7FC8DE290E0B6010E949D
:1038B000AD1C06C080E390E0B6010E94AD1CEA9406
:1038C0007E14C0F37A94F201E70DF11D808190E03F
:1038D000B6010E94AD1C7720A9F706C080E290E0F7
:1038E000B6010E94AD1CFA94FF20C1F737CEF60155
:1038F0002681378102C02FEF3FEFC9012C960FB60A
:10390000F894DEBF0FBECDBFCF91DF911F910F9115
:10391000FF90EF90DF90CF90BF90AF909F908F90EF
:103920007F906F905F904F903F902F900895FC0193
:103930000590615070400110D8F7809590958E0FDA
:103940009F1F0895FC016150704001900110D8F74D
:10395000809590958E0F9F1F08950F931F93CF937F
:10396000DF938C01EB018B8181FF1BC082FF0DC0B7
:103970002E813F818C819D812817390764F4E8816D
:10398000F9810193F983E88306C0E885F985802FE2
:103990000995009731F48E819F8101969F838E83D4
:1039A00002C00FEF1FEFC801DF91CF911F910F9160
:1039B0000895FA01AA27283051F1203181F1E894C5
:1039C0006F936E7F6E5F7F4F8F4F9F4FAF4FB1E012
:1039D0003ED0B4E03CD0670F781F891F9A1FA11D0D
:1039E000680F791F8A1F911DA11D6A0F711D811D0E
:1039F000911DA11D20D009F468943F912AE0269FD3
:103A000011243019305D3193DEF6CF010895462F31
:103A10004770405D4193B3E00FD0C9F7F6CF462F12
:103A20004F70405D4A3318F0495D31FD405241937B
:103A300002D0A9F7EACFB4E0A69597958795779538
:103A40006795BA95C9F700976105710508959B01BF
:103A5000AC010A2E06945795479537952795BA9548
:103A6000C9F7620F731F841F951FA01D0895F89456
:023A7000FFCF86
:103A72000100776174636800534554204441544502
:103A8200005345542054494D450054494D45005377
:103A9200544F500054696D652773205570210020E2
:103AA2002020256425643A256425643A256425642A
:103AB2000025634D20256425643A256425643A2552
:103AC2006425640025642E256420256343001F00BD
:103AD2001C001F001E001F001E001F001F001E00F2
:103AE2001F001E001F00E307010001002534642EA1
:103AF2002532642E25326420202563256325630048
:103B020053756E4D6F6E547565576564546875468E
:103B1200726953617453004D0054005700540046BB
:103B2200005300616C72616D2000202020007469D6
:103B32006D652025634D20256425643A256425643E
:103B4200002A2000202A00202000736574202020F3
:103B5200006F6666202020004F002A00200064616A
:103B62007465200000000000000000000001020255
:103B72000303030304040404040404040505050503
:103B820005050505050505050505050506060606DF
:103B920006060606060606060606060606060606C3
:103BA20006060606060606060606060607070707AF
:103BB2000707070707070707070707070707070793
:103BC2000707070707070707070707070707070783
:103BD2000707070707070707070707070707070773
:103BE200070707070707070707070707080808085F
:103BF2000808080808080808080808080808080843
:103C02000808080808080808080808080808080832
:103C12000808080808080808080808080808080822
:103C22000808080808080808080808080808080812
:103C32000808080808080808080808080808080802
:103C420008080808080808080808080808080808F2
:103C520008080808080808080808080808080808E2
:0C3C6200080808080808080808080808F6
:00000001FF
